{
    "_format": "hh-sol-artifact-1",
    "contractName": "FunctionsOracle",
    "sourceName": "contracts/dev/functions/FunctionsOracle.sol",
    "abi": [
        {
            "inputs": [],
            "name": "AlreadySet",
            "type": "error"
        },
        {
            "inputs": [],
            "name": "CannotSelfTransfer",
            "type": "error"
        },
        {
            "inputs": [],
            "name": "EmptyBillingRegistry",
            "type": "error"
        },
        {
            "inputs": [],
            "name": "EmptyPublicKey",
            "type": "error"
        },
        {
            "inputs": [],
            "name": "EmptyRequestData",
            "type": "error"
        },
        {
            "inputs": [],
            "name": "EmptySendersList",
            "type": "error"
        },
        {
            "inputs": [],
            "name": "InconsistentReportData",
            "type": "error"
        },
        {
            "inputs": [],
            "name": "NotAllowedToSetSenders",
            "type": "error"
        },
        {
            "inputs": [],
            "name": "NotProposedOwner",
            "type": "error"
        },
        {
            "inputs": [],
            "name": "OnlyCallableByOwner",
            "type": "error"
        },
        {
            "inputs": [],
            "name": "OwnerMustBeSet",
            "type": "error"
        },
        {
            "inputs": [],
            "name": "ReportInvalid",
            "type": "error"
        },
        {
            "inputs": [],
            "name": "UnauthorizedPublicKeyChange",
            "type": "error"
        },
        {
            "inputs": [],
            "name": "UnauthorizedSender",
            "type": "error"
        },
        {
            "anonymous": false,
            "inputs": [
                {
                    "indexed": false,
                    "internalType": "address",
                    "name": "account",
                    "type": "address"
                }
            ],
            "name": "AuthorizedSendersActive",
            "type": "event"
        },
        {
            "anonymous": false,
            "inputs": [
                {
                    "indexed": false,
                    "internalType": "address[]",
                    "name": "senders",
                    "type": "address[]"
                },
                {
                    "indexed": false,
                    "internalType": "address",
                    "name": "changedBy",
                    "type": "address"
                }
            ],
            "name": "AuthorizedSendersChanged",
            "type": "event"
        },
        {
            "anonymous": false,
            "inputs": [
                {
                    "indexed": false,
                    "internalType": "address",
                    "name": "account",
                    "type": "address"
                }
            ],
            "name": "AuthorizedSendersDeactive",
            "type": "event"
        },
        {
            "anonymous": false,
            "inputs": [
                {
                    "indexed": false,
                    "internalType": "uint32",
                    "name": "previousConfigBlockNumber",
                    "type": "uint32"
                },
                {
                    "indexed": false,
                    "internalType": "bytes32",
                    "name": "configDigest",
                    "type": "bytes32"
                },
                {
                    "indexed": false,
                    "internalType": "uint64",
                    "name": "configCount",
                    "type": "uint64"
                },
                {
                    "indexed": false,
                    "internalType": "address[]",
                    "name": "signers",
                    "type": "address[]"
                },
                {
                    "indexed": false,
                    "internalType": "address[]",
                    "name": "transmitters",
                    "type": "address[]"
                },
                {
                    "indexed": false,
                    "internalType": "uint8",
                    "name": "f",
                    "type": "uint8"
                },
                {
                    "indexed": false,
                    "internalType": "bytes",
                    "name": "onchainConfig",
                    "type": "bytes"
                },
                {
                    "indexed": false,
                    "internalType": "uint64",
                    "name": "offchainConfigVersion",
                    "type": "uint64"
                },
                {
                    "indexed": false,
                    "internalType": "bytes",
                    "name": "offchainConfig",
                    "type": "bytes"
                }
            ],
            "name": "ConfigSet",
            "type": "event"
        },
        {
            "anonymous": false,
            "inputs": [
                {
                    "indexed": false,
                    "internalType": "uint8",
                    "name": "version",
                    "type": "uint8"
                }
            ],
            "name": "Initialized",
            "type": "event"
        },
        {
            "anonymous": false,
            "inputs": [
                {
                    "indexed": true,
                    "internalType": "bytes32",
                    "name": "requestId",
                    "type": "bytes32"
                }
            ],
            "name": "InvalidRequestID",
            "type": "event"
        },
        {
            "anonymous": false,
            "inputs": [
                {
                    "indexed": true,
                    "internalType": "bytes32",
                    "name": "requestId",
                    "type": "bytes32"
                },
                {
                    "indexed": false,
                    "internalType": "address",
                    "name": "requestingContract",
                    "type": "address"
                },
                {
                    "indexed": false,
                    "internalType": "address",
                    "name": "requestInitiator",
                    "type": "address"
                },
                {
                    "indexed": false,
                    "internalType": "uint64",
                    "name": "subscriptionId",
                    "type": "uint64"
                },
                {
                    "indexed": false,
                    "internalType": "address",
                    "name": "subscriptionOwner",
                    "type": "address"
                },
                {
                    "indexed": false,
                    "internalType": "bytes",
                    "name": "data",
                    "type": "bytes"
                }
            ],
            "name": "OracleRequest",
            "type": "event"
        },
        {
            "anonymous": false,
            "inputs": [
                {
                    "indexed": true,
                    "internalType": "bytes32",
                    "name": "requestId",
                    "type": "bytes32"
                }
            ],
            "name": "OracleResponse",
            "type": "event"
        },
        {
            "anonymous": false,
            "inputs": [
                {
                    "indexed": true,
                    "internalType": "address",
                    "name": "from",
                    "type": "address"
                },
                {
                    "indexed": true,
                    "internalType": "address",
                    "name": "to",
                    "type": "address"
                }
            ],
            "name": "OwnershipTransferRequested",
            "type": "event"
        },
        {
            "anonymous": false,
            "inputs": [
                {
                    "indexed": true,
                    "internalType": "address",
                    "name": "from",
                    "type": "address"
                },
                {
                    "indexed": true,
                    "internalType": "address",
                    "name": "to",
                    "type": "address"
                }
            ],
            "name": "OwnershipTransferred",
            "type": "event"
        },
        {
            "anonymous": false,
            "inputs": [
                {
                    "indexed": false,
                    "internalType": "bytes32",
                    "name": "configDigest",
                    "type": "bytes32"
                },
                {
                    "indexed": false,
                    "internalType": "uint32",
                    "name": "epoch",
                    "type": "uint32"
                }
            ],
            "name": "Transmitted",
            "type": "event"
        },
        {
            "anonymous": false,
            "inputs": [
                {
                    "indexed": true,
                    "internalType": "bytes32",
                    "name": "requestId",
                    "type": "bytes32"
                },
                {
                    "indexed": false,
                    "internalType": "string",
                    "name": "reason",
                    "type": "string"
                }
            ],
            "name": "UserCallbackError",
            "type": "event"
        },
        {
            "anonymous": false,
            "inputs": [
                {
                    "indexed": true,
                    "internalType": "bytes32",
                    "name": "requestId",
                    "type": "bytes32"
                },
                {
                    "indexed": false,
                    "internalType": "bytes",
                    "name": "lowLevelData",
                    "type": "bytes"
                }
            ],
            "name": "UserCallbackRawError",
            "type": "event"
        },
        {
            "inputs": [],
            "name": "acceptOwnership",
            "outputs": [],
            "stateMutability": "nonpayable",
            "type": "function"
        },
        {
            "inputs": [],
            "name": "activateAuthorizedReceiver",
            "outputs": [],
            "stateMutability": "nonpayable",
            "type": "function"
        },
        {
            "inputs": [
                {
                    "internalType": "address[]",
                    "name": "senders",
                    "type": "address[]"
                }
            ],
            "name": "addAuthorizedSenders",
            "outputs": [],
            "stateMutability": "nonpayable",
            "type": "function"
        },
        {
            "inputs": [],
            "name": "authorizedReceiverActive",
            "outputs": [
                {
                    "internalType": "bool",
                    "name": "",
                    "type": "bool"
                }
            ],
            "stateMutability": "view",
            "type": "function"
        },
        {
            "inputs": [],
            "name": "deactivateAuthorizedReceiver",
            "outputs": [],
            "stateMutability": "nonpayable",
            "type": "function"
        },
        {
            "inputs": [
                {
                    "internalType": "address",
                    "name": "node",
                    "type": "address"
                }
            ],
            "name": "deleteNodePublicKey",
            "outputs": [],
            "stateMutability": "nonpayable",
            "type": "function"
        },
        {
            "inputs": [
                {
                    "internalType": "uint64",
                    "name": "subscriptionId",
                    "type": "uint64"
                },
                {
                    "internalType": "bytes",
                    "name": "data",
                    "type": "bytes"
                },
                {
                    "internalType": "uint32",
                    "name": "gasLimit",
                    "type": "uint32"
                },
                {
                    "internalType": "uint256",
                    "name": "gasPrice",
                    "type": "uint256"
                }
            ],
            "name": "estimateCost",
            "outputs": [
                {
                    "internalType": "uint96",
                    "name": "",
                    "type": "uint96"
                }
            ],
            "stateMutability": "view",
            "type": "function"
        },
        {
            "inputs": [],
            "name": "getAllNodePublicKeys",
            "outputs": [
                {
                    "internalType": "address[]",
                    "name": "",
                    "type": "address[]"
                },
                {
                    "internalType": "bytes[]",
                    "name": "",
                    "type": "bytes[]"
                }
            ],
            "stateMutability": "view",
            "type": "function"
        },
        {
            "inputs": [],
            "name": "getAuthorizedSenders",
            "outputs": [
                {
                    "internalType": "address[]",
                    "name": "",
                    "type": "address[]"
                }
            ],
            "stateMutability": "view",
            "type": "function"
        },
        {
            "inputs": [],
            "name": "getDONPublicKey",
            "outputs": [
                {
                    "internalType": "bytes",
                    "name": "",
                    "type": "bytes"
                }
            ],
            "stateMutability": "view",
            "type": "function"
        },
        {
            "inputs": [],
            "name": "getRegistry",
            "outputs": [
                {
                    "internalType": "address",
                    "name": "",
                    "type": "address"
                }
            ],
            "stateMutability": "view",
            "type": "function"
        },
        {
            "inputs": [
                {
                    "internalType": "bytes",
                    "name": "",
                    "type": "bytes"
                },
                {
                    "components": [
                        {
                            "internalType": "uint64",
                            "name": "subscriptionId",
                            "type": "uint64"
                        },
                        {
                            "internalType": "address",
                            "name": "client",
                            "type": "address"
                        },
                        {
                            "internalType": "uint32",
                            "name": "gasLimit",
                            "type": "uint32"
                        },
                        {
                            "internalType": "uint256",
                            "name": "gasPrice",
                            "type": "uint256"
                        }
                    ],
                    "internalType": "struct FunctionsBillingRegistryInterface.RequestBilling",
                    "name": "",
                    "type": "tuple"
                }
            ],
            "name": "getRequiredFee",
            "outputs": [
                {
                    "internalType": "uint96",
                    "name": "",
                    "type": "uint96"
                }
            ],
            "stateMutability": "pure",
            "type": "function"
        },
        {
            "inputs": [],
            "name": "initialize",
            "outputs": [],
            "stateMutability": "nonpayable",
            "type": "function"
        },
        {
            "inputs": [
                {
                    "internalType": "address",
                    "name": "sender",
                    "type": "address"
                }
            ],
            "name": "isAuthorizedSender",
            "outputs": [
                {
                    "internalType": "bool",
                    "name": "",
                    "type": "bool"
                }
            ],
            "stateMutability": "view",
            "type": "function"
        },
        {
            "inputs": [],
            "name": "latestConfigDetails",
            "outputs": [
                {
                    "internalType": "uint32",
                    "name": "configCount",
                    "type": "uint32"
                },
                {
                    "internalType": "uint32",
                    "name": "blockNumber",
                    "type": "uint32"
                },
                {
                    "internalType": "bytes32",
                    "name": "configDigest",
                    "type": "bytes32"
                }
            ],
            "stateMutability": "view",
            "type": "function"
        },
        {
            "inputs": [],
            "name": "latestConfigDigestAndEpoch",
            "outputs": [
                {
                    "internalType": "bool",
                    "name": "scanLogs",
                    "type": "bool"
                },
                {
                    "internalType": "bytes32",
                    "name": "configDigest",
                    "type": "bytes32"
                },
                {
                    "internalType": "uint32",
                    "name": "epoch",
                    "type": "uint32"
                }
            ],
            "stateMutability": "view",
            "type": "function"
        },
        {
            "inputs": [],
            "name": "owner",
            "outputs": [
                {
                    "internalType": "address",
                    "name": "",
                    "type": "address"
                }
            ],
            "stateMutability": "view",
            "type": "function"
        },
        {
            "inputs": [
                {
                    "internalType": "address[]",
                    "name": "senders",
                    "type": "address[]"
                }
            ],
            "name": "removeAuthorizedSenders",
            "outputs": [],
            "stateMutability": "nonpayable",
            "type": "function"
        },
        {
            "inputs": [
                {
                    "internalType": "uint64",
                    "name": "subscriptionId",
                    "type": "uint64"
                },
                {
                    "internalType": "bytes",
                    "name": "data",
                    "type": "bytes"
                },
                {
                    "internalType": "uint32",
                    "name": "gasLimit",
                    "type": "uint32"
                }
            ],
            "name": "sendRequest",
            "outputs": [
                {
                    "internalType": "bytes32",
                    "name": "",
                    "type": "bytes32"
                }
            ],
            "stateMutability": "nonpayable",
            "type": "function"
        },
        {
            "inputs": [
                {
                    "internalType": "address[]",
                    "name": "_signers",
                    "type": "address[]"
                },
                {
                    "internalType": "address[]",
                    "name": "_transmitters",
                    "type": "address[]"
                },
                {
                    "internalType": "uint8",
                    "name": "_f",
                    "type": "uint8"
                },
                {
                    "internalType": "bytes",
                    "name": "_onchainConfig",
                    "type": "bytes"
                },
                {
                    "internalType": "uint64",
                    "name": "_offchainConfigVersion",
                    "type": "uint64"
                },
                {
                    "internalType": "bytes",
                    "name": "_offchainConfig",
                    "type": "bytes"
                }
            ],
            "name": "setConfig",
            "outputs": [],
            "stateMutability": "nonpayable",
            "type": "function"
        },
        {
            "inputs": [
                {
                    "internalType": "bytes",
                    "name": "donPublicKey",
                    "type": "bytes"
                }
            ],
            "name": "setDONPublicKey",
            "outputs": [],
            "stateMutability": "nonpayable",
            "type": "function"
        },
        {
            "inputs": [
                {
                    "internalType": "address",
                    "name": "node",
                    "type": "address"
                },
                {
                    "internalType": "bytes",
                    "name": "publicKey",
                    "type": "bytes"
                }
            ],
            "name": "setNodePublicKey",
            "outputs": [],
            "stateMutability": "nonpayable",
            "type": "function"
        },
        {
            "inputs": [
                {
                    "internalType": "address",
                    "name": "registryAddress",
                    "type": "address"
                }
            ],
            "name": "setRegistry",
            "outputs": [],
            "stateMutability": "nonpayable",
            "type": "function"
        },
        {
            "inputs": [
                {
                    "internalType": "address",
                    "name": "to",
                    "type": "address"
                }
            ],
            "name": "transferOwnership",
            "outputs": [],
            "stateMutability": "nonpayable",
            "type": "function"
        },
        {
            "inputs": [
                {
                    "internalType": "bytes32[3]",
                    "name": "reportContext",
                    "type": "bytes32[3]"
                },
                {
                    "internalType": "bytes",
                    "name": "report",
                    "type": "bytes"
                },
                {
                    "internalType": "bytes32[]",
                    "name": "rs",
                    "type": "bytes32[]"
                },
                {
                    "internalType": "bytes32[]",
                    "name": "ss",
                    "type": "bytes32[]"
                },
                {
                    "internalType": "bytes32",
                    "name": "rawVs",
                    "type": "bytes32"
                }
            ],
            "name": "transmit",
            "outputs": [],
            "stateMutability": "nonpayable",
            "type": "function"
        },
        {
            "inputs": [],
            "name": "transmitters",
            "outputs": [
                {
                    "internalType": "address[]",
                    "name": "",
                    "type": "address[]"
                }
            ],
            "stateMutability": "view",
            "type": "function"
        },
        {
            "inputs": [],
            "name": "typeAndVersion",
            "outputs": [
                {
                    "internalType": "string",
                    "name": "",
                    "type": "string"
                }
            ],
            "stateMutability": "pure",
            "type": "function"
        }
    ],
    "bytecode": "0x608060405234801561001057600080fd5b50613935806100206000396000f3fe608060405234801561001057600080fd5b50600436106101b95760003560e01c80638129fc1c116100f9578063b1dc65a411610097578063e3d0e71211610071578063e3d0e712146103df578063f1e14a21146103f2578063f2fde38b14610409578063fa00763a1461041c57600080fd5b8063b1dc65a414610394578063d227d245146103a7578063d328a91e146103d757600080fd5b80638da5cb5b116100d35780638da5cb5b1461034257806391bb64eb14610359578063a91ee0dc14610361578063afcb95d71461037457600080fd5b80638129fc1c14610302578063814118341461030a57806381ff70481461031257600080fd5b80634b4fa0c1116101665780635ab1bd53116101405780635ab1bd53146102af57806379ba5097146102d45780637f15e166146102dc57806380756031146102ef57600080fd5b80634b4fa0c11461026f5780634dcef40414610286578063533989871461029957600080fd5b80632408afaa116101975780632408afaa1461022657806326ceabac1461023b57806328242b041461024e57600080fd5b806303e1bf23146101be578063110254c8146101d3578063181f5a77146101db575b600080fd5b6101d16101cc366004612ac9565b61042f565b005b6101d161050e565b60408051808201909152601581527f46756e6374696f6e734f7261636c6520302e302e30000000000000000000000060208201525b60405161021d9190612b58565b60405180910390f35b61022e6105a6565b60405161021d9190612baf565b6101d1610249366004612bd7565b6105b7565b61026161025c366004612c67565b610631565b60405190815260200161021d565b60085460ff165b604051901515815260200161021d565b6101d1610294366004612ac9565b610857565b6102a16108f6565b60405161021d929190612ccc565b600c546001600160a01b03165b6040516001600160a01b03909116815260200161021d565b6101d1610ad1565b6101d16102ea366004612d3e565b610b89565b6101d16102fd366004612d74565b610bd9565b6101d1610c68565b61022e610d98565b6004546002546040805163ffffffff8085168252640100000000909404909316602084015282015260600161021d565b6000546201000090046001600160a01b03166102bc565b6101d1610dfa565b6101d161036f366004612bd7565b610e88565b60408051600181526000602082018190529181019190915260600161021d565b6101d16103a2366004612dc9565b610ed9565b6103ba6103b5366004612e80565b6114d2565b6040516bffffffffffffffffffffffff909116815260200161021d565b610210611699565b6101d16103ed36600461304d565b611722565b6103ba61040036600461311a565b60009392505050565b6101d1610417366004612bd7565b611e78565b61027661042a366004612bd7565b611e89565b6000546201000090046001600160a01b031633146104605760405163ad77f06160e01b815260040160405180910390fd5b8061047e576040516375158c3b60e01b815260040160405180910390fd5b60005b818110156104ce576104bb83838381811061049e5761049e6131d7565b90506020020160208101906104b39190612bd7565b600990611eb4565b50806104c681613203565b915050610481565b507ff263cfb3e4298332e776194610cf9fdc09ccb3ada8b9aa39764d882e11fbf0a08282336040516105029392919061321e565b60405180910390a15050565b6000546201000090046001600160a01b0316331461053f5760405163ad77f06160e01b815260040160405180910390fd5b60085460ff16156105635760405163a741a04560e01b815260040160405180910390fd5b6008805460ff191660011790556040513381527fae51766a982895b0c444fc99fc1a560762b464d709e6c78376c85617f7eeb5ce906020015b60405180910390a1565b60606105b26009611ed0565b905090565b6000546201000090046001600160a01b03166001600160a01b0316336001600160a01b031614806105f05750336001600160a01b038216145b61060d5760405163ed6dd19b60e01b815260040160405180910390fd5b6001600160a01b0381166000908152600d6020526040812061062e9161298b565b50565b600c546000906001600160a01b031661065d57604051632717f8c960e21b815260040160405180910390fd5b610665611edd565b8261069b576040517ec1cfc000000000000000000000000000000000000000000000000000000000815260040160405180910390fd5b600c546040805160808101825267ffffffffffffffff8816815233602082015263ffffffff8516818301523a606082015290517fa9d03c050000000000000000000000000000000000000000000000000000000081526000926001600160a01b03169163a9d03c05916107159189918991906004016132a7565b602060405180830381600087803b15801561072f57600080fd5b505af1158015610743573d6000803e3d6000fd5b505050506040513d601f19601f820116820180604052508101906107679190613303565b600c546040517fb2a489ff00000000000000000000000000000000000000000000000000000000815267ffffffffffffffff8916600482015291925082917fa1ec73989d79578cd6f67d4f593ac3e0a4d1020e5c0164db52108d7ff785406c91339132918b916001600160a01b039091169063b2a489ff9060240160206040518083038186803b1580156107fa57600080fd5b505afa15801561080e573d6000803e3d6000fd5b505050506040513d601f19601f82011682018060405250810190610832919061331c565b8a8a60405161084696959493929190613339565b60405180910390a295945050505050565b6000546201000090046001600160a01b031633146108885760405163ad77f06160e01b815260040160405180910390fd5b806108a6576040516375158c3b60e01b815260040160405180910390fd5b60005b818110156104ce576108e38383838181106108c6576108c66131d7565b90506020020160208101906108db9190612bd7565b600990611f1e565b50806108ee81613203565b9150506108a9565b6060806000306001600160a01b031663814118346040518163ffffffff1660e01b815260040160006040518083038186803b15801561093457600080fd5b505afa158015610948573d6000803e3d6000fd5b505050506040513d6000823e601f3d908101601f19168201604052610970919081019061338a565b90506000815167ffffffffffffffff81111561098e5761098e612eed565b6040519080825280602002602001820160405280156109c157816020015b60608152602001906001900390816109ac5790505b50905060005b8251811015610ac757600d60008483815181106109e6576109e66131d7565b60200260200101516001600160a01b03166001600160a01b031681526020019081526020016000208054610a1990613424565b80601f0160208091040260200160405190810160405280929190818152602001828054610a4590613424565b8015610a925780601f10610a6757610100808354040283529160200191610a92565b820191906000526020600020905b815481529060010190602001808311610a7557829003601f168201915b5050505050828281518110610aa957610aa96131d7565b60200260200101819052508080610abf90613203565b9150506109c7565b5090939092509050565b6001546001600160a01b03163314610b15576040517f0f22ca5f00000000000000000000000000000000000000000000000000000000815260040160405180910390fd5b60008054336201000081810275ffffffffffffffffffffffffffffffffffffffff0000198416178455600180546001600160a01b03191690556040516001600160a01b03919093041692909183917f8be0079c531659141344cd1fd0a4f28419497f9722a3daafe3b4186f6b6457e091a350565b610b91611f33565b80610bc8576040517f4f42be3d00000000000000000000000000000000000000000000000000000000815260040160405180910390fd5b610bd4600b83836129c5565b505050565b6000546201000090046001600160a01b03166001600160a01b0316336001600160a01b03161480610c225750610c0e33611f7d565b8015610c225750336001600160a01b038416145b610c3f5760405163ed6dd19b60e01b815260040160405180910390fd5b6001600160a01b0383166000908152600d60205260409020610c629083836129c5565b50505050565b600054610100900460ff1615808015610c885750600054600160ff909116105b80610ca25750303b158015610ca2575060005460ff166001145b610d195760405162461bcd60e51b815260206004820152602e60248201527f496e697469616c697a61626c653a20636f6e747261637420697320616c72656160448201527f647920696e697469616c697a656400000000000000000000000000000000000060648201526084015b60405180910390fd5b6000805460ff191660011790558015610d3c576000805461ff0019166101001790555b610d46600161205c565b610d50600161210b565b801561062e576000805461ff0019169055604051600181527f7f26b83ff96e1f2b6a682f133852f6798a09c465da95921460cefb38474024989060200160405180910390a150565b60606007805480602002602001604051908101604052809291908181526020018280548015610df057602002820191906000526020600020905b81546001600160a01b03168152600190910190602001808311610dd2575b5050505050905090565b6000546201000090046001600160a01b03163314610e2b5760405163ad77f06160e01b815260040160405180910390fd5b60085460ff16610e4e5760405163a741a04560e01b815260040160405180910390fd5b6008805460ff191690556040513381527fea3828816a323b8d7ff49d755efd105e7719166d6c76fad97a28eee5eccc3d9a9060200161059c565b610e90611f33565b6001600160a01b038116610eb757604051632717f8c960e21b815260040160405180910390fd5b600c80546001600160a01b0319166001600160a01b0392909216919091179055565b60005a604080516020601f8b018190048102820181019092528981529192508a3591818c013591610f2f91849163ffffffff851691908e908e908190840183828082843760009201919091525061218992505050565b610f4c5760405163017c6c6560e31b815260040160405180910390fd5b6040805183815262ffffff600884901c1660208201527fb04e63db38c49950639fa09d29872f21f5d49d614f3a969d8adf3d4b52e41a62910160405180910390a16040805160608101825260025480825260035460ff808216602085015261010090910416928201929092529083146110075760405162461bcd60e51b815260206004820152601560248201527f636f6e666967446967657374206d69736d6174636800000000000000000000006044820152606401610d10565b6110158b8b8b8b8b8b612192565b600154600090600160a01b900460ff161561105f57600282602001518360400151611040919061345f565b61104a919061349a565b61105590600161345f565b60ff169050611075565b602082015161106f90600161345f565b60ff1690505b8881146110c45760405162461bcd60e51b815260206004820152601a60248201527f77726f6e67206e756d626572206f66207369676e6174757265730000000000006044820152606401610d10565b8887146111135760405162461bcd60e51b815260206004820152601e60248201527f7369676e617475726573206f7574206f6620726567697374726174696f6e00006044820152606401610d10565b3360009081526005602090815260408083208151808301909252805460ff80821684529293919291840191610100909104166002811115611156576111566134bc565b6002811115611167576111676134bc565b9052509050600281602001516002811115611184576111846134bc565b1480156111be57506007816000015160ff16815481106111a6576111a66131d7565b6000918252602090912001546001600160a01b031633145b61120a5760405162461bcd60e51b815260206004820152601860248201527f756e617574686f72697a6564207472616e736d697474657200000000000000006044820152606401610d10565b5050505050611217612a49565b6000808a8a60405161122a9291906134d2565b604051908190038120611241918e906020016134e2565b60408051601f198184030181528282528051602091820120838301909252600080845290830152915060005b898110156114b457600060018489846020811061128c5761128c6131d7565b61129991901a601b61345f565b8e8e868181106112ab576112ab6131d7565b905060200201358d8d878181106112c4576112c46131d7565b9050602002013560405160008152602001604052604051611301949392919093845260ff9290921660208401526040830152606082015260800190565b6020604051602081039080840390855afa158015611323573d6000803e3d6000fd5b505060408051601f198101516001600160a01b03811660009081526005602090815290849020838501909452835460ff80821685529296509294508401916101009004166002811115611378576113786134bc565b6002811115611389576113896134bc565b90525092506001836020015160028111156113a6576113a66134bc565b146113f35760405162461bcd60e51b815260206004820152601e60248201527f61646472657373206e6f7420617574686f72697a656420746f207369676e00006044820152606401610d10565b8251600090879060ff16601f811061140d5761140d6131d7565b60200201516001600160a01b0316146114685760405162461bcd60e51b815260206004820152601460248201527f6e6f6e2d756e69717565207369676e61747572650000000000000000000000006044820152606401610d10565b8086846000015160ff16601f8110611482576114826131d7565b6001600160a01b0390921660209290920201526114a060018661345f565b945050806114ad90613203565b905061126d565b5050506114c5833383858e8e61222f565b5050505050505050505050565b600c546000906001600160a01b03166114fe57604051632717f8c960e21b815260040160405180910390fd5b6040805160808101825267ffffffffffffffff8816815233602082015263ffffffff85168183015260608101849052600c5491517ff1e14a21000000000000000000000000000000000000000000000000000000008152909160009182916001600160a01b03169063f1e14a219061157e908b908b9088906004016132a7565b60206040518083038186803b15801561159657600080fd5b505afa1580156115aa573d6000803e3d6000fd5b505050506040513d601f19601f820116820180604052508101906115ce91906134fe565b600c546040517fa1a6d04100000000000000000000000000000000000000000000000000000000815263ffffffff89166004820152602481018890526bffffffffffffffffffffffff8086166044830152831660648201529192506001600160a01b03169063a1a6d0419060840160206040518083038186803b15801561165457600080fd5b505afa158015611668573d6000803e3d6000fd5b505050506040513d601f19601f8201168201806040525081019061168c91906134fe565b9998505050505050505050565b6060600b80546116a890613424565b80601f01602080910402602001604051908101604052809291908181526020018280546116d490613424565b8015610df05780601f106116f657610100808354040283529160200191610df0565b820191906000526020600020905b81548152906001019060200180831161170457509395945050505050565b855185518560ff16601f83111561177b5760405162461bcd60e51b815260206004820152601060248201527f746f6f206d616e79207369676e657273000000000000000000000000000000006044820152606401610d10565b600081116117cb5760405162461bcd60e51b815260206004820152601260248201527f66206d75737420626520706f73697469766500000000000000000000000000006044820152606401610d10565b81831461183f5760405162461bcd60e51b8152602060048201526024808201527f6f7261636c6520616464726573736573206f7574206f6620726567697374726160448201527f74696f6e000000000000000000000000000000000000000000000000000000006064820152608401610d10565b61184a81600361352c565b83116118985760405162461bcd60e51b815260206004820152601860248201527f6661756c74792d6f7261636c65206620746f6f206869676800000000000000006044820152606401610d10565b6118a0611f33565b6040805160c0810182528a8152602081018a905260ff8916918101919091526060810187905267ffffffffffffffff8616608082015260a081018590525b600654156119f0576006546000906118f89060019061354b565b905060006006828154811061190f5761190f6131d7565b6000918252602082200154600780546001600160a01b039092169350908490811061193c5761193c6131d7565b60009182526020808320909101546001600160a01b03858116845260059092526040808420805461ffff199081169091559290911680845292208054909116905560068054919250908061199257611992613562565b600082815260209020810160001990810180546001600160a01b031916905501905560078054806119c5576119c5613562565b600082815260209020810160001990810180546001600160a01b0319169055019055506118de915050565b60005b815151811015611d2d5760006005600084600001518481518110611a1957611a196131d7565b6020908102919091018101516001600160a01b0316825281019190915260400160002054610100900460ff166002811115611a5657611a566134bc565b14611aa35760405162461bcd60e51b815260206004820152601760248201527f7265706561746564207369676e657220616464726573730000000000000000006044820152606401610d10565b6040805180820190915260ff82168152600160208201528251805160059160009185908110611ad457611ad46131d7565b6020908102919091018101516001600160a01b03168252818101929092526040016000208251815460ff90911660ff19821681178355928401519192839161ffff191617610100836002811115611b2d57611b2d6134bc565b021790555060009150611b3d9050565b6005600084602001518481518110611b5757611b576131d7565b6020908102919091018101516001600160a01b0316825281019190915260400160002054610100900460ff166002811115611b9457611b946134bc565b14611be15760405162461bcd60e51b815260206004820152601c60248201527f7265706561746564207472616e736d69747465722061646472657373000000006044820152606401610d10565b6040805180820190915260ff821681526020810160028152506005600084602001518481518110611c1457611c146131d7565b6020908102919091018101516001600160a01b03168252818101929092526040016000208251815460ff90911660ff19821681178355928401519192839161ffff191617610100836002811115611c6d57611c6d6134bc565b021790555050825180516006925083908110611c8b57611c8b6131d7565b602090810291909101810151825460018101845560009384529282902090920180546001600160a01b0319166001600160a01b039093169290921790915582015180516007919083908110611ce257611ce26131d7565b60209081029190910181015182546001810184556000938452919092200180546001600160a01b0319166001600160a01b03909216919091179055611d2681613203565b90506119f3565b5060408101516003805460ff191660ff9092169190911790556004805467ffffffff0000000019811664010000000063ffffffff438116820292831785559083048116936001939092600092611d8a928692908216911617613578565b92506101000a81548163ffffffff021916908363ffffffff160217905550611de94630600460009054906101000a900463ffffffff1663ffffffff16856000015186602001518760400151886060015189608001518a60a001516125b2565b6002819055825180516003805460ff9092166101000261ff001990921691909117905560045460208501516040808701516060880151608089015160a08a015193517f1591690b8638f5fb2dbec82ac741805ac5da8b45dc5263f4875b0496fdce4e0598611e6b988b98919763ffffffff9092169690959194919391926135a0565b60405180910390a16114c5565b611e80611f33565b61062e8161263f565b6000611e9760085460ff1690565b611ea357506001919050565b611eae6009836126da565b92915050565b6000611ec9836001600160a01b0384166126fc565b9392505050565b60606000611ec9836127ef565b611ee632611e89565b611f1c576040517f0809490800000000000000000000000000000000000000000000000000000000815260040160405180910390fd5b565b6000611ec9836001600160a01b03841661284b565b6000546201000090046001600160a01b03163314611f1c576040517f2b5c74de00000000000000000000000000000000000000000000000000000000815260040160405180910390fd5b600080306001600160a01b031663814118346040518163ffffffff1660e01b815260040160006040518083038186803b158015611fb957600080fd5b505afa158015611fcd573d6000803e3d6000fd5b505050506040513d6000823e601f3d908101601f19168201604052611ff5919081019061338a565b905060005b815181101561205257836001600160a01b031682828151811061201f5761201f6131d7565b60200260200101516001600160a01b03161415612040575060019392505050565b8061204a81613203565b915050611ffa565b5060009392505050565b600054610100900460ff166120c75760405162461bcd60e51b815260206004820152602b60248201527f496e697469616c697a61626c653a20636f6e7472616374206973206e6f74206960448201526a6e697469616c697a696e6760a81b6064820152608401610d10565b6120d233600061289a565b60018054911515600160a01b027fffffffffffffffffffffff00ffffffffffffffffffffffffffffffffffffffff909216919091179055565b600054610100900460ff166121765760405162461bcd60e51b815260206004820152602b60248201527f496e697469616c697a61626c653a20636f6e7472616374206973206e6f74206960448201526a6e697469616c697a696e6760a81b6064820152608401610d10565b6008805460ff1916911515919091179055565b60019392505050565b600061219f82602061352c565b6121aa85602061352c565b6121b688610144613636565b6121c09190613636565b6121ca9190613636565b6121d5906000613636565b90503681146122265760405162461bcd60e51b815260206004820152601860248201527f63616c6c64617461206c656e677468206d69736d6174636800000000000000006044820152606401610d10565b50505050505050565b600c546001600160a01b031661225857604051632717f8c960e21b815260040160405180910390fd5b60608080612268848601866136ce565b82519295509093509150158061228057508151835114155b8061228d57508051835114155b156122ab5760405163017c6c6560e31b815260040160405180910390fd5b600083515a6122ba908c61354b565b6122c491906137ab565b905060005b84518110156114c557600c5485516001600160a01b0390911690630739e4f1908790849081106122fb576122fb6131d7565b6020026020010151868481518110612315576123156131d7565b602002602001015186858151811061232f5761232f6131d7565b60200260200101518e8d8f895a6040518963ffffffff1660e01b815260040161235f9897969594939291906137bf565b602060405180830381600087803b15801561237957600080fd5b505af19250505080156123a9575060408051601f3d908101601f191682019092526123a691810190613856565b60015b612434573d8080156123d7576040519150601f19603f3d011682016040523d82523d6000602084013e6123dc565b606091505b508582815181106123ef576123ef6131d7565b60200260200101517fe0b838ffe6ee22a0d3acf19a85db6a41b34a1ab739e2d6c759a2e42d95bdccb2826040516124269190612b58565b60405180910390a25061259c565b6000816002811115612448576124486134bc565b141561249957858281518110612460576124606131d7565b60200260200101517f9e9bc7616d42c2835d05ae617e508454e63b30b934be8aa932ebc125e0e58a6460405160405180910390a261259a565b60018160028111156124ad576124ad6134bc565b1415612539578582815181106124c5576124c56131d7565b60200260200101517fb2931868c372fe17a25643458add467d60ec5c51125a99b7309f41f5bcd2da6c60405161252c9060208082526011908201527f6572726f7220696e2063616c6c6261636b000000000000000000000000000000604082015260600190565b60405180910390a261259a565b600281600281111561254d5761254d6134bc565b141561259a57858281518110612565576125656131d7565b60200260200101517fa1c120e327c9ad8b075793878c88d59b8934b97ae37117faa3bb21616237f7be60405160405180910390a25b505b806125a681613203565b9150506122c9565b5050565b6000808a8a8a8a8a8a8a8a8a6040516020016125d699989796959493929190613877565b60408051601f1981840301815291905280516020909101207dffffffffffffffffffffffffffffffffffffffffffffffffffffffffffff167e01000000000000000000000000000000000000000000000000000000000000179150509998505050505050505050565b6001600160a01b038116331415612682576040517f282010c300000000000000000000000000000000000000000000000000000000815260040160405180910390fd5b600180546001600160a01b0319166001600160a01b038381169182179092556000805460405192936201000090910416917fed8889f560326eb138920d842192f0eb3dd22b4f139c87a2c57538e05bae12789190a350565b6001600160a01b03811660009081526001830160205260408120541515611ec9565b600081815260018301602052604081205480156127e557600061272060018361354b565b85549091506000906127349060019061354b565b9050818114612799576000866000018281548110612754576127546131d7565b9060005260206000200154905080876000018481548110612777576127776131d7565b6000918252602080832090910192909255918252600188019052604090208390555b85548690806127aa576127aa613562565b600190038181906000526020600020016000905590558560010160008681526020019081526020016000206000905560019350505050611eae565b6000915050611eae565b60608160000180548060200260200160405190810160405280929190818152602001828054801561283f57602002820191906000526020600020905b81548152602001906001019080831161282b575b50505050509050919050565b600081815260018301602052604081205461289257508154600181810184556000848152602080822090930184905584548482528286019093526040902091909155611eae565b506000611eae565b600054610100900460ff166129055760405162461bcd60e51b815260206004820152602b60248201527f496e697469616c697a61626c653a20636f6e7472616374206973206e6f74206960448201526a6e697469616c697a696e6760a81b6064820152608401610d10565b6001600160a01b038216612945576040517fb6b515fa00000000000000000000000000000000000000000000000000000000815260040160405180910390fd5b600080546001600160a01b03808516620100000275ffffffffffffffffffffffffffffffffffffffff000019909216919091179091558116156125ae576125ae8161263f565b50805461299790613424565b6000825580601f106129a7575050565b601f01602090049060005260206000209081019061062e9190612a68565b8280546129d190613424565b90600052602060002090601f0160209004810192826129f35760008555612a39565b82601f10612a0c5782800160ff19823516178555612a39565b82800160010185558215612a39579182015b82811115612a39578235825591602001919060010190612a1e565b50612a45929150612a68565b5090565b604051806103e00160405280601f906020820280368337509192915050565b5b80821115612a455760008155600101612a69565b60008083601f840112612a8f57600080fd5b50813567ffffffffffffffff811115612aa757600080fd5b6020830191508360208260051b8501011115612ac257600080fd5b9250929050565b60008060208385031215612adc57600080fd5b823567ffffffffffffffff811115612af357600080fd5b612aff85828601612a7d565b90969095509350505050565b6000815180845260005b81811015612b3157602081850181015186830182015201612b15565b81811115612b43576000602083870101525b50601f01601f19169290920160200192915050565b602081526000611ec96020830184612b0b565b600081518084526020808501945080840160005b83811015612ba45781516001600160a01b031687529582019590820190600101612b7f565b509495945050505050565b602081526000611ec96020830184612b6b565b6001600160a01b038116811461062e57600080fd5b600060208284031215612be957600080fd5b8135611ec981612bc2565b803567ffffffffffffffff81168114612c0c57600080fd5b919050565b60008083601f840112612c2357600080fd5b50813567ffffffffffffffff811115612c3b57600080fd5b602083019150836020828501011115612ac257600080fd5b803563ffffffff81168114612c0c57600080fd5b60008060008060608587031215612c7d57600080fd5b612c8685612bf4565b9350602085013567ffffffffffffffff811115612ca257600080fd5b612cae87828801612c11565b9094509250612cc1905060408601612c53565b905092959194509250565b604081526000612cdf6040830185612b6b565b6020838203818501528185518084528284019150828160051b85010183880160005b83811015612d2f57601f19878403018552612d1d838351612b0b565b94860194925090850190600101612d01565b50909998505050505050505050565b60008060208385031215612d5157600080fd5b823567ffffffffffffffff811115612d6857600080fd5b612aff85828601612c11565b600080600060408486031215612d8957600080fd5b8335612d9481612bc2565b9250602084013567ffffffffffffffff811115612db057600080fd5b612dbc86828701612c11565b9497909650939450505050565b60008060008060008060008060e0898b031215612de557600080fd5b606089018a811115612df657600080fd5b8998503567ffffffffffffffff80821115612e1057600080fd5b612e1c8c838d01612c11565b909950975060808b0135915080821115612e3557600080fd5b612e418c838d01612a7d565b909750955060a08b0135915080821115612e5a57600080fd5b50612e678b828c01612a7d565b999c989b50969995989497949560c00135949350505050565b600080600080600060808688031215612e9857600080fd5b612ea186612bf4565b9450602086013567ffffffffffffffff811115612ebd57600080fd5b612ec988828901612c11565b9095509350612edc905060408701612c53565b949793965091946060013592915050565b634e487b7160e01b600052604160045260246000fd5b604051601f8201601f1916810167ffffffffffffffff81118282101715612f2c57612f2c612eed565b604052919050565b600067ffffffffffffffff821115612f4e57612f4e612eed565b5060051b60200190565b600082601f830112612f6957600080fd5b81356020612f7e612f7983612f34565b612f03565b82815260059290921b84018101918181019086841115612f9d57600080fd5b8286015b84811015612fc1578035612fb481612bc2565b8352918301918301612fa1565b509695505050505050565b803560ff81168114612c0c57600080fd5b600082601f830112612fee57600080fd5b813567ffffffffffffffff81111561300857613008612eed565b61301b601f8201601f1916602001612f03565b81815284602083860101111561303057600080fd5b816020850160208301376000918101602001919091529392505050565b60008060008060008060c0878903121561306657600080fd5b863567ffffffffffffffff8082111561307e57600080fd5b61308a8a838b01612f58565b975060208901359150808211156130a057600080fd5b6130ac8a838b01612f58565b96506130ba60408a01612fcc565b955060608901359150808211156130d057600080fd5b6130dc8a838b01612fdd565b94506130ea60808a01612bf4565b935060a089013591508082111561310057600080fd5b5061310d89828a01612fdd565b9150509295509295509295565b600080600083850360a081121561313057600080fd5b843567ffffffffffffffff8082111561314857600080fd5b61315488838901612c11565b90965094508491506080601f198401121561316e57600080fd5b6040519250608083019150828210818311171561318d5761318d612eed565b5060405261319d60208601612bf4565b815260408501356131ad81612bc2565b60208201526131be60608601612c53565b6040820152608094909401356060850152509093909250565b634e487b7160e01b600052603260045260246000fd5b634e487b7160e01b600052601160045260246000fd5b6000600019821415613217576132176131ed565b5060010190565b6040808252810183905260008460608301825b8681101561326157823561324481612bc2565b6001600160a01b0316825260209283019290910190600101613231565b5080925050506001600160a01b0383166020830152949350505050565b81835281816020850137506000828201602090810191909152601f909101601f19169091010190565b60a0815260006132bb60a08301858761327e565b905067ffffffffffffffff83511660208301526001600160a01b03602084015116604083015263ffffffff604084015116606083015260608301516080830152949350505050565b60006020828403121561331557600080fd5b5051919050565b60006020828403121561332e57600080fd5b8151611ec981612bc2565b60006001600160a01b038089168352808816602084015267ffffffffffffffff8716604084015280861660608401525060a0608083015261337e60a08301848661327e565b98975050505050505050565b6000602080838503121561339d57600080fd5b825167ffffffffffffffff8111156133b457600080fd5b8301601f810185136133c557600080fd5b80516133d3612f7982612f34565b81815260059190911b820183019083810190878311156133f257600080fd5b928401925b8284101561341957835161340a81612bc2565b825292840192908401906133f7565b979650505050505050565b600181811c9082168061343857607f821691505b6020821081141561345957634e487b7160e01b600052602260045260246000fd5b50919050565b600060ff821660ff84168060ff0382111561347c5761347c6131ed565b019392505050565b634e487b7160e01b600052601260045260246000fd5b600060ff8316806134ad576134ad613484565b8060ff84160491505092915050565b634e487b7160e01b600052602160045260246000fd5b8183823760009101908152919050565b8281526060826020830137600060809190910190815292915050565b60006020828403121561351057600080fd5b81516bffffffffffffffffffffffff81168114611ec957600080fd5b6000816000190483118215151615613546576135466131ed565b500290565b60008282101561355d5761355d6131ed565b500390565b634e487b7160e01b600052603160045260246000fd5b600063ffffffff808316818516808303821115613597576135976131ed565b01949350505050565b600061012063ffffffff808d1684528b6020850152808b166040850152508060608401526135d08184018a612b6b565b905082810360808401526135e48189612b6b565b905060ff871660a084015282810360c08401526136018187612b0b565b905067ffffffffffffffff851660e08401528281036101008401526136268185612b0b565b9c9b505050505050505050505050565b60008219821115613649576136496131ed565b500190565b600082601f83011261365f57600080fd5b8135602061366f612f7983612f34565b82815260059290921b8401810191818101908684111561368e57600080fd5b8286015b84811015612fc157803567ffffffffffffffff8111156136b25760008081fd5b6136c08986838b0101612fdd565b845250918301918301613692565b6000806000606084860312156136e357600080fd5b833567ffffffffffffffff808211156136fb57600080fd5b818601915086601f83011261370f57600080fd5b8135602061371f612f7983612f34565b82815260059290921b8401810191818101908a84111561373e57600080fd5b948201945b8386101561375c57853582529482019490820190613743565b9750508701359250508082111561377257600080fd5b61377e8783880161364e565b9350604086013591508082111561379457600080fd5b506137a18682870161364e565b9150509250925092565b6000826137ba576137ba613484565b500490565b60006104c08a8352602081818501526137da8285018c612b0b565b915083820360408501526137ee828b612b0b565b92506001600160a01b0391508189166060850152608084018860005b601f81101561382957815185168352918301919083019060010161380a565b505050505061383e61046083018660ff169052565b6104808201939093526104a001529695505050505050565b60006020828403121561386857600080fd5b815160038110611ec957600080fd5b60006101208b83526001600160a01b038b16602084015267ffffffffffffffff808b1660408501528160608501526138b18285018b612b6b565b915083820360808501526138c5828a612b6b565b915060ff881660a085015283820360c08501526138e28288612b0b565b90861660e085015283810361010085015290506136268185612b0b56fea26469706673582212200fd7fcd9f7076c4ca964433eba5d5ba7883a6a6873b225e7b1cfeaa78caa7cb964736f6c63430008090033",
    "linkReferences": {},
    "deployedLinkReferences": {}
}