{
    "_format": "hh-sol-artifact-1",
    "contractName": "STAKController",
    "sourceName": "contracts/STAKController.sol",
    "abi": [
        {
            "inputs": [
                {
                    "internalType": "address",
                    "name": "oracle",
                    "type": "address"
                },
                {
                    "internalType": "address",
                    "name": "staksAddress",
                    "type": "address"
                }
            ],
            "stateMutability": "nonpayable",
            "type": "constructor"
        },
        {
            "inputs": [],
            "name": "EmptyArgs",
            "type": "error"
        },
        {
            "inputs": [],
            "name": "EmptySecrets",
            "type": "error"
        },
        {
            "inputs": [],
            "name": "EmptySource",
            "type": "error"
        },
        {
            "inputs": [],
            "name": "NoInlineSecrets",
            "type": "error"
        },
        {
            "inputs": [],
            "name": "RequestIsAlreadyPending",
            "type": "error"
        },
        {
            "inputs": [],
            "name": "RequestIsNotPending",
            "type": "error"
        },
        {
            "inputs": [],
            "name": "SenderIsNotRegistry",
            "type": "error"
        },
        {
            "anonymous": false,
            "inputs": [
                {
                    "indexed": true,
                    "internalType": "bytes32",
                    "name": "requestId",
                    "type": "bytes32"
                },
                {
                    "indexed": false,
                    "internalType": "bytes",
                    "name": "result",
                    "type": "bytes"
                },
                {
                    "indexed": false,
                    "internalType": "bytes",
                    "name": "err",
                    "type": "bytes"
                }
            ],
            "name": "OCRResponse",
            "type": "event"
        },
        {
            "anonymous": false,
            "inputs": [
                {
                    "indexed": true,
                    "internalType": "address",
                    "name": "from",
                    "type": "address"
                },
                {
                    "indexed": true,
                    "internalType": "address",
                    "name": "to",
                    "type": "address"
                }
            ],
            "name": "OwnershipTransferRequested",
            "type": "event"
        },
        {
            "anonymous": false,
            "inputs": [
                {
                    "indexed": true,
                    "internalType": "address",
                    "name": "from",
                    "type": "address"
                },
                {
                    "indexed": true,
                    "internalType": "address",
                    "name": "to",
                    "type": "address"
                }
            ],
            "name": "OwnershipTransferred",
            "type": "event"
        },
        {
            "anonymous": false,
            "inputs": [
                {
                    "indexed": true,
                    "internalType": "bytes32",
                    "name": "id",
                    "type": "bytes32"
                }
            ],
            "name": "RequestFulfilled",
            "type": "event"
        },
        {
            "anonymous": false,
            "inputs": [
                {
                    "indexed": true,
                    "internalType": "bytes32",
                    "name": "id",
                    "type": "bytes32"
                }
            ],
            "name": "RequestSent",
            "type": "event"
        },
        {
            "anonymous": false,
            "inputs": [
                {
                    "indexed": true,
                    "internalType": "string",
                    "name": "postId",
                    "type": "string"
                },
                {
                    "indexed": false,
                    "internalType": "uint256",
                    "name": "rewardedTokens",
                    "type": "uint256"
                }
            ],
            "name": "StaksRewarded",
            "type": "event"
        },
        {
            "inputs": [],
            "name": "acceptOwnership",
            "outputs": [],
            "stateMutability": "nonpayable",
            "type": "function"
        },
        {
            "inputs": [
                {
                    "components": [
                        {
                            "internalType": "enum Functions.Location",
                            "name": "codeLocation",
                            "type": "uint8"
                        },
                        {
                            "internalType": "enum Functions.Location",
                            "name": "secretsLocation",
                            "type": "uint8"
                        },
                        {
                            "internalType": "enum Functions.CodeLanguage",
                            "name": "language",
                            "type": "uint8"
                        },
                        {
                            "internalType": "string",
                            "name": "source",
                            "type": "string"
                        },
                        {
                            "internalType": "bytes",
                            "name": "secrets",
                            "type": "bytes"
                        },
                        {
                            "internalType": "string[]",
                            "name": "args",
                            "type": "string[]"
                        }
                    ],
                    "internalType": "struct Functions.Request",
                    "name": "req",
                    "type": "tuple"
                },
                {
                    "internalType": "uint64",
                    "name": "subscriptionId",
                    "type": "uint64"
                },
                {
                    "internalType": "uint32",
                    "name": "gasLimit",
                    "type": "uint32"
                },
                {
                    "internalType": "uint256",
                    "name": "gasPrice",
                    "type": "uint256"
                }
            ],
            "name": "estimateCost",
            "outputs": [
                {
                    "internalType": "uint96",
                    "name": "",
                    "type": "uint96"
                }
            ],
            "stateMutability": "view",
            "type": "function"
        },
        {
            "inputs": [
                {
                    "internalType": "address",
                    "name": "postOwner",
                    "type": "address"
                },
                {
                    "internalType": "string",
                    "name": "source",
                    "type": "string"
                },
                {
                    "internalType": "bytes",
                    "name": "secrets",
                    "type": "bytes"
                },
                {
                    "internalType": "string[]",
                    "name": "args",
                    "type": "string[]"
                },
                {
                    "internalType": "uint64",
                    "name": "subscriptionId",
                    "type": "uint64"
                },
                {
                    "internalType": "uint32",
                    "name": "gasLimit",
                    "type": "uint32"
                }
            ],
            "name": "executeRequest",
            "outputs": [
                {
                    "internalType": "bytes32",
                    "name": "",
                    "type": "bytes32"
                }
            ],
            "stateMutability": "nonpayable",
            "type": "function"
        },
        {
            "inputs": [],
            "name": "getDONPublicKey",
            "outputs": [
                {
                    "internalType": "bytes",
                    "name": "",
                    "type": "bytes"
                }
            ],
            "stateMutability": "view",
            "type": "function"
        },
        {
            "inputs": [
                {
                    "internalType": "bytes32",
                    "name": "requestId",
                    "type": "bytes32"
                },
                {
                    "internalType": "bytes",
                    "name": "response",
                    "type": "bytes"
                },
                {
                    "internalType": "bytes",
                    "name": "err",
                    "type": "bytes"
                }
            ],
            "name": "handleOracleFulfillment",
            "outputs": [],
            "stateMutability": "nonpayable",
            "type": "function"
        },
        {
            "inputs": [],
            "name": "owner",
            "outputs": [
                {
                    "internalType": "address",
                    "name": "",
                    "type": "address"
                }
            ],
            "stateMutability": "view",
            "type": "function"
        },
        {
            "inputs": [
                {
                    "internalType": "string",
                    "name": "",
                    "type": "string"
                }
            ],
            "name": "posts",
            "outputs": [
                {
                    "internalType": "address",
                    "name": "owner",
                    "type": "address"
                },
                {
                    "internalType": "uint256",
                    "name": "totalLikes",
                    "type": "uint256"
                }
            ],
            "stateMutability": "view",
            "type": "function"
        },
        {
            "inputs": [
                {
                    "internalType": "bytes32",
                    "name": "",
                    "type": "bytes32"
                }
            ],
            "name": "requestToPosts",
            "outputs": [
                {
                    "internalType": "string",
                    "name": "",
                    "type": "string"
                }
            ],
            "stateMutability": "view",
            "type": "function"
        },
        {
            "inputs": [],
            "name": "staksToken",
            "outputs": [
                {
                    "internalType": "contract IERC20Minter",
                    "name": "",
                    "type": "address"
                }
            ],
            "stateMutability": "view",
            "type": "function"
        },
        {
            "inputs": [
                {
                    "internalType": "address",
                    "name": "to",
                    "type": "address"
                }
            ],
            "name": "transferOwnership",
            "outputs": [],
            "stateMutability": "nonpayable",
            "type": "function"
        }
    ],
    "bytecode": "0x60806040523480156200001157600080fd5b506040516200232b3803806200232b8339810160408190526200003491620001d8565b600080546001600160a01b0319166001600160a01b038416178155339081906001600160a01b038216620000af5760405162461bcd60e51b815260206004820152601860248201527f43616e6e6f7420736574206f776e657220746f207a65726f000000000000000060448201526064015b60405180910390fd5b600280546001600160a01b0319166001600160a01b0384811691909117909155811615620000e257620000e2816200010e565b5050600680546001600160a01b0319166001600160a01b03939093169290921790915550620002109050565b6001600160a01b038116331415620001695760405162461bcd60e51b815260206004820152601760248201527f43616e6e6f74207472616e7366657220746f2073656c660000000000000000006044820152606401620000a6565b600380546001600160a01b0319166001600160a01b03838116918217909255600254604051919216907fed8889f560326eb138920d842192f0eb3dd22b4f139c87a2c57538e05bae127890600090a350565b80516001600160a01b0381168114620001d357600080fd5b919050565b60008060408385031215620001ec57600080fd5b620001f783620001bb565b91506200020760208401620001bb565b90509250929050565b61210b80620002206000396000f3fe608060405234801561001057600080fd5b50600436106100be5760003560e01c8063d09d049711610076578063d4b391751161005b578063d4b3917514610166578063f2fde38b14610196578063f8300fca146101a957600080fd5b8063d09d04971461014b578063d328a91e1461015e57600080fd5b80638da5cb5b116100a75780638da5cb5b146100e057806390bd9a3f1461010a578063c11195281461012b57600080fd5b80630ca76175146100c357806379ba5097146100d8575b600080fd5b6100d66100d13660046117a1565b610206565b005b6100d66102ac565b6002546001600160a01b03165b6040516001600160a01b0390911681526020015b60405180910390f35b61011d61011836600461189d565b610366565b604051908152602001610101565b61013e61013936600461199a565b610569565b6040516101019190611a0b565b6006546100ed906001600160a01b031681565b61013e610603565b610179610174366004611ae1565b6106a1565b6040516bffffffffffffffffffffffff9091168152602001610101565b6100d66101a4366004611bf3565b610737565b6101e76101b7366004611c10565b8051602081830181018051600482529282019190930120915280546001909101546001600160a01b039091169082565b604080516001600160a01b039093168352602083019190915201610101565b60008381526001602052604090205483906001600160a01b03163314610258576040517fa0c5ec6300000000000000000000000000000000000000000000000000000000815260040160405180910390fd5b60008181526001602052604080822080546001600160a01b03191690555182917f85e1543bf2f84fe80c6badbce3648c8539ad1df4d2b3d822938ca0538be727e691a26102a684848461074b565b50505050565b6003546001600160a01b0316331461030b5760405162461bcd60e51b815260206004820152601660248201527f4d7573742062652070726f706f736564206f776e65720000000000000000000060448201526064015b60405180910390fd5b600280546001600160a01b0319808216339081179093556003805490911690556040516001600160a01b03909116919082907f8be0079c531659141344cd1fd0a4f28419497f9722a3daafe3b4186f6b6457e090600090a350565b6000610370610abb565b6103aa6040805160c08101909152806000815260200160008152602001600081526020016060815260200160608152602001606081525090565b6103f16000808c8c8080601f01602080910402602001604051908101604052809392919081815260200183838082843760009201919091525087959493925050610b179050565b86156104395761043988888080601f0160208091040260200160405190810160405280939291908181526020018383808284376000920191909152508593925050610bab9050565b84156104535761045361044c8688611c4d565b8290610bf2565b6000610460828686610c32565b90508686600081811061047557610475611c5a565b90506020028101906104879190611c70565b60008381526005602052604090206104a0929091611571565b5060006004888883816104b5576104b5611c5a565b90506020028101906104c79190611c70565b6040516104d5929190611cb7565b908152604051908190036020019020546001600160a01b0316141561055a578b60048888600081811061050a5761050a611c5a565b905060200281019061051c9190611c70565b60405161052a929190611cb7565b90815260405190819003602001902080546001600160a01b03929092166001600160a01b03199092169190911790555b9b9a5050505050505050505050565b6005602052600090815260409020805461058290611cc7565b80601f01602080910402602001604051908101604052809291908181526020018280546105ae90611cc7565b80156105fb5780601f106105d0576101008083540402835291602001916105fb565b820191906000526020600020905b8154815290600101906020018083116105de57829003601f168201915b505050505081565b60008054604080517fd328a91e00000000000000000000000000000000000000000000000000000000815290516060936001600160a01b039093169263d328a91e9260048082019391829003018186803b15801561066057600080fd5b505afa158015610674573d6000803e3d6000fd5b505050506040513d6000823e601f3d908101601f1916820160405261069c9190810190611d02565b905090565b600080546001600160a01b031663d227d245856106bd88610da4565b86866040518563ffffffff1660e01b81526004016106de9493929190611d70565b60206040518083038186803b1580156106f657600080fd5b505afa15801561070a573d6000803e3d6000fd5b505050506040513d601f19601f8201168201806040525081019061072e9190611dac565b95945050505050565b61073f610abb565b61074881611070565b50565b827f7bab0ec163b5c132c72b8146ac4d6e067e82ed58f8b131150aa71c9258911562838360405161077d929190611dda565b60405180910390a26000838152600560205260408120805461079e90611cc7565b9050116107ed5760405162461bcd60e51b815260206004820152601260248201527f696e76616c6964207265717565737420696400000000000000000000000000006044820152606401610302565b600083815260056020526040808220905160049161080a91611dff565b908152604051908190036020019020546001600160a01b031614156108715760405162461bcd60e51b815260206004820152600c60248201527f696e76616c696420706f737400000000000000000000000000000000000000006044820152606401610302565b600061087c83611e9b565b6000858152600560205260408082209051929350909160049161089e91611dff565b908152602001604051809103902060010154905080821115610a3357816004600560008881526020019081526020016000206040516108dd9190611dff565b908152604080519182900360209081018320600101939093556006546000898152600590945292206001600160a01b03909216916340c10f199160049161092391611dff565b908152604051908190036020019020546001600160a01b03166109468486611ed5565b61095890670de0b6b3a7640000611eec565b6040517fffffffff0000000000000000000000000000000000000000000000000000000060e085901b1681526001600160a01b0390921660048301526024820152604401600060405180830381600087803b1580156109b657600080fd5b505af11580156109ca573d6000803e3d6000fd5b5050506000868152600560205260409081902090516109e99250611dff565b6040519081900390207f1a086b6fac07679d9b2635984345aa7be14961e3d76a661ce448cbf5ad421905610a1d8385611ed5565b60405190815260200160405180910390a2610a8b565b600085815260056020526040908190209051610a4f9190611dff565b60405190819003812060008252907f1a086b6fac07679d9b2635984345aa7be14961e3d76a661ce448cbf5ad4219059060200160405180910390a25b604080516020808201808452600080845289815260059092529290209051610ab392906115f5565b505050505050565b6002546001600160a01b03163314610b155760405162461bcd60e51b815260206004820152601660248201527f4f6e6c792063616c6c61626c65206279206f776e6572000000000000000000006044820152606401610302565b565b8051610b4f576040517f22ce3edd00000000000000000000000000000000000000000000000000000000815260040160405180910390fd5b83836001811115610b6257610b62611f0b565b90816001811115610b7557610b75611f0b565b90525060408401828015610b8b57610b8b611f0b565b90818015610b9b57610b9b611f0b565b9052506060909301929092525050565b8051610be3576040517fe889636f00000000000000000000000000000000000000000000000000000000815260040160405180910390fd5b60016020830152608090910152565b8051610c2a576040517ffe936cb700000000000000000000000000000000000000000000000000000000815260040160405180910390fd5b60a090910152565b6000805481906001600160a01b03166328242b0485610c5088610da4565b866040518463ffffffff1660e01b8152600401610c6f93929190611f21565b602060405180830381600087803b158015610c8957600080fd5b505af1158015610c9d573d6000803e3d6000fd5b505050506040513d601f19601f82011682018060405250810190610cc19190611f5a565b905060008054906101000a90046001600160a01b03166001600160a01b0316635ab1bd536040518163ffffffff1660e01b815260040160206040518083038186803b158015610d0f57600080fd5b505afa158015610d23573d6000803e3d6000fd5b505050506040513d601f19601f82011682018060405250810190610d479190611f73565b60008281526001602052604080822080546001600160a01b0319166001600160a01b039490941693909317909255905182917f1131472297a800fee664d1d89cfa8f7676ff07189ecc53f80bbb5f4969099db891a2949350505050565b6060610dae611669565b8051610dbc9061010061111b565b50610dfc816040518060400160405280600c81526020017f636f64654c6f636174696f6e0000000000000000000000000000000000000000815250611195565b610e1b8184600001516001811115610e1657610e16611f0b565b6111b3565b610e5a816040518060400160405280600881526020017f6c616e6775616765000000000000000000000000000000000000000000000000815250611195565b610e748184604001516000811115610e1657610e16611f0b565b610eb3816040518060400160405280600681526020017f736f757263650000000000000000000000000000000000000000000000000000815250611195565b610ec1818460600151611195565b60a08301515115610f6757610f0b816040518060400160405280600481526020017f6172677300000000000000000000000000000000000000000000000000000000815250611195565b610f14816111f0565b60005b8360a0015151811015610f5d57610f4b828560a001518381518110610f3e57610f3e611c5a565b6020026020010151611195565b80610f5581611f90565b915050610f17565b50610f6781611214565b6080830151511561106857600083602001516001811115610f8a57610f8a611f0b565b1415610fc2576040517fa80d31f700000000000000000000000000000000000000000000000000000000815260040160405180910390fd5b611001816040518060400160405280600f81526020017f736563726574734c6f636174696f6e0000000000000000000000000000000000815250611195565b61101b8184602001516001811115610e1657610e16611f0b565b61105a816040518060400160405280600781526020017f7365637265747300000000000000000000000000000000000000000000000000815250611195565b611068818460800151611232565b515192915050565b6001600160a01b0381163314156110c95760405162461bcd60e51b815260206004820152601760248201527f43616e6e6f74207472616e7366657220746f2073656c660000000000000000006044820152606401610302565b600380546001600160a01b0319166001600160a01b03838116918217909255600254604051919216907fed8889f560326eb138920d842192f0eb3dd22b4f139c87a2c57538e05bae127890600090a350565b60408051808201909152606081526000602082015261113b602083611fab565b156111635761114b602083611fab565b611156906020611ed5565b6111609083611fcd565b91505b60208084018390526040518085526000815290818401018181101561118757600080fd5b604052508290505b92915050565b6111a2826003835161123b565b81516111ae908261135c565b505050565b81516111c09060c2611384565b506111ec82826040516020016111d891815260200190565b604051602081830303815290604052611232565b5050565b6111fb8160046113ed565b60018160200181815161120e9190611fcd565b90525050565b61121f8160076113ed565b60018160200181815161120e9190611ed5565b6111a282600283515b60178167ffffffffffffffff16116112625782516102a69060e0600585901b168317611384565b60ff8167ffffffffffffffff16116112a457825161128b906018611fe0600586901b1617611384565b5082516102a69067ffffffffffffffff83166001611404565b61ffff8167ffffffffffffffff16116112e75782516112ce906019611fe0600586901b1617611384565b5082516102a69067ffffffffffffffff83166002611404565b63ffffffff8167ffffffffffffffff161161132c57825161131390601a611fe0600586901b1617611384565b5082516102a69067ffffffffffffffff83166004611404565b825161134390601b611fe0600586901b1617611384565b5082516102a69067ffffffffffffffff83166008611404565b60408051808201909152606081526000602082015261137d83838451611489565b9392505050565b60408051808201909152606081526000602082015282515160006113a9826001611fcd565b9050846020015182106113ca576113ca856113c5836002611eec565b61155a565b84516020838201018581535080518211156113e3578181525b5093949350505050565b81516111ae90601f611fe0600585901b1617611384565b60408051808201909152606081526000602082015283515160006114288285611fcd565b9050856020015181111561144557611445866113c5836002611eec565b60006001611455866101006120c9565b61145f9190611ed5565b9050865182810187831982511617815250805183111561147d578281525b50959695505050505050565b60408051808201909152606081526000602082015282518211156114ac57600080fd5b83515160006114bb8483611fcd565b905085602001518111156114d8576114d8866113c5836002611eec565b8551805183820160200191600091808511156114f2578482525b505050602086015b602086106115325780518252611511602083611fcd565b915061151e602082611fcd565b905061152b602087611ed5565b95506114fa565b51815160001960208890036101000a0190811690199190911617905250849150509392505050565b8151611566838361111b565b506102a6838261135c565b82805461157d90611cc7565b90600052602060002090601f01602090048101928261159f57600085556115e5565b82601f106115b85782800160ff198235161785556115e5565b828001600101855582156115e5579182015b828111156115e55782358255916020019190600101906115ca565b506115f192915061169e565b5090565b82805461160190611cc7565b90600052602060002090601f01602090048101928261162357600085556115e5565b82601f1061163c57805160ff19168380011785556115e5565b828001600101855582156115e5579182015b828111156115e557825182559160200191906001019061164e565b6040518060400160405280611691604051806040016040528060608152602001600081525090565b8152602001600081525090565b5b808211156115f1576000815560010161169f565b634e487b7160e01b600052604160045260246000fd5b60405160c0810167ffffffffffffffff811182821017156116ec576116ec6116b3565b60405290565b604051601f8201601f1916810167ffffffffffffffff8111828210171561171b5761171b6116b3565b604052919050565b600067ffffffffffffffff82111561173d5761173d6116b3565b50601f01601f191660200190565b600082601f83011261175c57600080fd5b813561176f61176a82611723565b6116f2565b81815284602083860101111561178457600080fd5b816020850160208301376000918101602001919091529392505050565b6000806000606084860312156117b657600080fd5b83359250602084013567ffffffffffffffff808211156117d557600080fd5b6117e18783880161174b565b935060408601359150808211156117f757600080fd5b506118048682870161174b565b9150509250925092565b6001600160a01b038116811461074857600080fd5b60008083601f84011261183557600080fd5b50813567ffffffffffffffff81111561184d57600080fd5b60208301915083602082850101111561186557600080fd5b9250929050565b803567ffffffffffffffff8116811461188457600080fd5b919050565b803563ffffffff8116811461188457600080fd5b600080600080600080600080600060c08a8c0312156118bb57600080fd5b89356118c68161180e565b985060208a013567ffffffffffffffff808211156118e357600080fd5b6118ef8d838e01611823565b909a50985060408c013591508082111561190857600080fd5b6119148d838e01611823565b909850965060608c013591508082111561192d57600080fd5b818c0191508c601f83011261194157600080fd5b81358181111561195057600080fd5b8d60208260051b850101111561196557600080fd5b60208301965080955050505061197d60808b0161186c565b915061198b60a08b01611889565b90509295985092959850929598565b6000602082840312156119ac57600080fd5b5035919050565b60005b838110156119ce5781810151838201526020016119b6565b838111156102a65750506000910152565b600081518084526119f78160208601602086016119b3565b601f01601f19169290920160200192915050565b60208152600061137d60208301846119df565b80356002811061188457600080fd5b80356001811061188457600080fd5b600067ffffffffffffffff80841115611a5757611a576116b3565b8360051b6020611a688183016116f2565b86815293509084019080840187831115611a8157600080fd5b855b83811015611ab557803585811115611a9b5760008081fd5b611aa78a828a0161174b565b835250908201908201611a83565b50505050509392505050565b600082601f830112611ad257600080fd5b61137d83833560208501611a3c565b60008060008060808587031215611af757600080fd5b843567ffffffffffffffff80821115611b0f57600080fd5b9086019060c08289031215611b2357600080fd5b611b2b6116c9565b611b3483611a1e565b8152611b4260208401611a1e565b6020820152611b5360408401611a2d565b6040820152606083013582811115611b6a57600080fd5b611b768a82860161174b565b606083015250608083013582811115611b8e57600080fd5b611b9a8a82860161174b565b60808301525060a083013582811115611bb257600080fd5b611bbe8a828601611ac1565b60a0830152509550611bd59150506020860161186c565b9250611be360408601611889565b9396929550929360600135925050565b600060208284031215611c0557600080fd5b813561137d8161180e565b600060208284031215611c2257600080fd5b813567ffffffffffffffff811115611c3957600080fd5b611c458482850161174b565b949350505050565b600061137d368484611a3c565b634e487b7160e01b600052603260045260246000fd5b6000808335601e19843603018112611c8757600080fd5b83018035915067ffffffffffffffff821115611ca257600080fd5b60200191503681900382131561186557600080fd5b8183823760009101908152919050565b600181811c90821680611cdb57607f821691505b60208210811415611cfc57634e487b7160e01b600052602260045260246000fd5b50919050565b600060208284031215611d1457600080fd5b815167ffffffffffffffff811115611d2b57600080fd5b8201601f81018413611d3c57600080fd5b8051611d4a61176a82611723565b818152856020838501011115611d5f57600080fd5b61072e8260208301602086016119b3565b67ffffffffffffffff85168152608060208201526000611d9360808301866119df565b63ffffffff949094166040830152506060015292915050565b600060208284031215611dbe57600080fd5b81516bffffffffffffffffffffffff8116811461137d57600080fd5b604081526000611ded60408301856119df565b828103602084015261072e81856119df565b600080835481600182811c915080831680611e1b57607f831692505b6020808410821415611e3b57634e487b7160e01b86526022600452602486fd5b818015611e4f5760018114611e6057611e8d565b60ff19861689528489019650611e8d565b60008a81526020902060005b86811015611e855781548b820152908501908301611e6c565b505084890196505b509498975050505050505050565b80516020808301519190811015611cfc5760001960209190910360031b1b16919050565b634e487b7160e01b600052601160045260246000fd5b600082821015611ee757611ee7611ebf565b500390565b6000816000190483118215151615611f0657611f06611ebf565b500290565b634e487b7160e01b600052602160045260246000fd5b67ffffffffffffffff84168152606060208201526000611f4460608301856119df565b905063ffffffff83166040830152949350505050565b600060208284031215611f6c57600080fd5b5051919050565b600060208284031215611f8557600080fd5b815161137d8161180e565b6000600019821415611fa457611fa4611ebf565b5060010190565b600082611fc857634e487b7160e01b600052601260045260246000fd5b500690565b60008219821115611fe057611fe0611ebf565b500190565b600181815b8085111561202057816000190482111561200657612006611ebf565b8085161561201357918102915b93841c9390800290611fea565b509250929050565b6000826120375750600161118f565b816120445750600061118f565b816001811461205a576002811461206457612080565b600191505061118f565b60ff84111561207557612075611ebf565b50506001821b61118f565b5060208310610133831016604e8410600b84101617156120a3575081810a61118f565b6120ad8383611fe5565b80600019048211156120c1576120c1611ebf565b029392505050565b600061137d838361202856fea2646970667358221220d44c12151bedf5bbcd9a2092ccc0c9aba0edcca18d92772ad7883db439810de264736f6c63430008090033",
    "linkReferences": {},
    "deployedLinkReferences": {}
}